:020000040800F2
:1000000010040020650100088302000811020008A6
:100010007F020008AD01000859060008000000003A
:10002000000000000000000000000000AF02000817
:10003000B101000800000000AD020008B102000894
:100040007F0100087F0100087F0100087F01000890
:100050007F010008B30100087F010008DD010008EE
:100060007F0100087F0100087F0100087F01000870
:100070007F0100087F0100087F0100087F01000860
:100080007F0100087F010008000000007F010008D8
:100090007F0100087F0100087F0100087F01000840
:1000A0007F0100087F0100087F0100087F01000830
:1000B0007F010008000000007F0100080000000030
:1000C0007F010008000000007F0100080000000020
:1000D0000000000000000000000000000000000020
:1000E00000000000000000007F0100080000000088
:1000F0000000000000000000000000000000000000
:100100007F01000800000000000000000000000067
:1001100000000000000000000000000000000000DF
:1001200000000000000000000000000000000000CF
:1001300000000000000000000000000000000000BF
:100140000000000000000000000000007F01000827
:10015000DFF80CD000F018F8004800472508000828
:10016000100400200648804706480047FEE7FEE7E7
:10017000FEE7FEE7FEE7FEE7FEE7FEE7FEE7FEE757
:10018000D502000851010008064C074D06E0E06862
:1001900040F0010394E8070098471034AC42F6D3CE
:1001A000FFF7DAFFBC0E0008DC0E000800BFFEE718
:1001B000704710B5022000F085FA02214FF0904000
:1001C00000F0C2FA08B9012000E0002004462246EF
:1001D00002214FF0904000F0B2FA10BD10B54FF47C
:1001E000005000F06FFA04214FF0904000F0ACFA9C
:1001F00008B9012000E000200446224604214FF007
:10020000904000F09CFA10BD10B500F003F810BD4E
:1002100000BFFEE710B500F028F8022300221946BF
:100220004FF0904000F098FA0223032200214FF093
:10023000904000F0B8FA022211464FF0904000F0D2
:100240004DFA0423022201214FF0904000F084FA7D
:100250000423032200214FF0904000F0A4FA04216F
:100260004FF0904000F069FA10BD10B540F2115007
:1002700000F00CFB40F2115000F008FB10BD00BF75
:10028000FEE7704710B5002807DA0A07140E054A82
:1002900000F00F031B1FD45403E00A07130E024A99
:1002A000135410BD18ED00E000E400E07047704703
:1002B00010B500F003F800F0F9F910BD4FF0FF3071
:1002C00002490860012002490860704708000020C8
:1002D0000C0000201CB5AD48806940F00100AB491E
:1002E0008861AB48C06940F07010A949C861A9484D
:1002F000C06900F00600062871D0A648C069C0F3A6
:10030000403000286BD0A448A2494860A348486008
:10031000A1488860A14888600846006940F0200034
:1003200008610846006940F04000086100BF994834
:10033000C06800F001000028F9D19648006920F05B
:100340002000944908610846006940F010000861E7
:100350000846C06900F0060018B9A5209049088039
:1003600008E08C48C06900F00600022802D1BB20DA
:100370008B4908808748C069000A00F0DF0088497F
:10038000891C08808348C069C0F30740891C088025
:100390008048C069000E891C08807E48006AC0B28F
:1003A000891C08807B48006AC0F30720891C0880EC
:1003B00000BF7848C06800F001000028F9D17548F6
:1003C000006920F01000734908610846006920F4B4
:1003D000007008610846006940F0800008617148BB
:1003E000006840F470006F4908606848006840F099
:1003F00001006649086000BF6448006800F0020020
:100400000028F9D06148406800F00C00082866D147
:1004100000BF0020019002E00198401C019001986B
:100420005028F9D3594840680090009820F0F00017
:100430000090009840F08000009054490098486077
:100440000020019002E00198401C01900198502882
:10045000F9D34E4840680090009820F0F0000090DA
:10046000009840F0900000904849009848600020B3
:10047000019002E00198401C019001985028F9D3A6
:10048000424840680090009820F0F00000900098EA
:1004900040F0A00000903D49009848600020019085
:1004A00002E00198401C019001985028F9D3374888
:1004B00040680090009820F0F0000090009840F014
:1004C000B00000903149009848600020019002E09F
:1004D0000198401C019001985028F9D300BF2B4887
:1004E000406820F0030029494860C82000F0C5F8A2
:1004F000264800682C49084024490860084640689E
:100500002A4908402149486008464068284908406F
:100510001E4948600846406820F44000486008468C
:10052000006B24490840194908630846C06A2249FB
:1005300008401649C8620846006B40F20311884320
:10054000124908630846006B20F4803008630846AF
:10055000006B20F0004008630846406B20F001006B
:1005600048630A48C030006820F48030C1F8C000F9
:10057000002088600549CC31086000F025FA002190
:100580004FF0006000F076F91CBD00000010024042
:10059000000001400020024023016745AB89EFCDF8
:1005A00000F8FF1F88ED00E0FFFFF2FE0C00FF08DF
:1005B000FFFFC277BFFFFFBFF0FFFF3F00B589B06D
:1005C0004FF4E06000F062F94FF0804000F0A0FBD3
:1005D0007720ADF814000020ADF81600ADF8180033
:1005E0004FF4FA7007900020ADF81A008DF8200043
:1005F00005A94FF0804000F0FFFB01200190002092
:10060000ADF80800ADF80A00ADF80C00ADF80E002A
:10061000ADF8100001AA0121880700F007FAFA22BC
:100620000121880700F033FB70220121880700F0C8
:1006300001FB00220121880700F03CFB0121880713
:1006400000F030FC4FF0804000F0EAF94FF08040BD
:1006500000F0CCFB09B000BD00BFFEE702E008C817
:10066000121F08C1002AFAD170477047002001E02C
:1006700001C1121F002AFBD1704708B5002100916B
:1006800002E00099491C009100EB8001009AB2EB56
:10069000410FF6D308BD00000349086000BF0249BE
:1006A00009680029FBD17047040000200448006855
:1006B00020B103480068401E0149086070470000EF
:1006C0000400002001490860704700001404014044
:1006D00000200149086070470C000020F0B5034677
:1006E0001C6A5D6A00200DE00126864016403EB17E
:1006F00087000F26BE40B443860001FA06F6344355
:10070000461CB0B20828EFD3082011E0012686402D
:1007100016405EB1A0F10806B7000F26BE40B543F3
:10072000A0F10806B60001FA06F63543461CB0B241
:100730001028EBD31C625D62F0BD816170470AB185
:10074000816100E08162704702461069084008B18B
:10075000012070470020FCE7F0B504460D46164620
:100760002168E268002019E0012787401F409FB1FF
:100770004FEA400C032707FA0CF7B943470005FA84
:1007800007F739434FEA400C032707FA0CF7BA433F
:10079000470006FA07F73A43471CB8B21028E3D3DC
:1007A0002160E260F0BDF0B504460E46012E03D193
:1007B00067681F43676002E067689F436760A168DE
:1007C0004FF6FF77BA4216D1E56B00200EE0012705
:1007D00087401F4047B14FEA400C032707FA0CF748
:1007E0003943012787403D43471CB8B21028EED358
:1007F000A160E56314E000200FE0012787401F405F
:100800004FB14FEA400C032707FA0CF7B9434700F2
:1008100002FA07F73943471CB8B21028EDD3A1609C
:10082000F0BD0000FFF7F0FC00F0D2F8FFF750FF3A
:10083000FFF7C4FE0024012519E00D4800680128D7
:1008400015D13220FFF728FF002009490860012D4B
:1008500001D10A3400E00A3CB4F5FA7F00D9002542
:1008600004B9012522460121880700F010FAE4E7C7
:100870000C000020034A0A400243034B1A60BFF3F6
:100880004F8F704780FFFF1F08ED00E0064A02EB24
:100890009011096800F01F0301229A401143024B96
:1008A00003EB90121160704700100240064A02EB01
:1008B0009011096800F01F0301229A409143024BF6
:1008C00003EB90121160704700100240064A02EBE1
:1008D0009011096800F01F0301229A401143024B56
:1008E00003EB9012116070470010024008B5002021
:1008F0000021314A126842F480322F4B1A6000BF47
:10090000401C2D4A126802F4003119B94FF6FF72EB
:100910009042F5D1284A126802F4003202B908BDAB
:10092000254A5268244B5A601A46526842F40052D3
:100930005A601A46526842F480625A601A465268F7
:100940001E4B1A401C4B5A601A46D26A1C4B1A4066
:10095000194BDA621A4652681A4B1A43164B5A6000
:100960001A46D26A42F00102DA621A46D26ADA62A2
:100970001A46126842F080721A6000BF0E4A12686E
:1009800002F00072002AF9D00B4A52680092009AD5
:1009900022F003020092009A42F002020092064BFB
:1009A000009A5A6000BF044A526802F00802002A06
:1009B000F9D000BFB3E7000000100240FFFFC0F70E
:1009C000F0FFFF3F0000290810B5FFF78FFF10BDB3
:1009D00010B5124800684FF47A71B0FBF1F4601E54
:1009E000B0F1807F01D301200FE0601E4FF0E021C5
:1009F00048610F214FF0FF30FFF744FC00204FF01B
:100A0000E021886107200861002008B100BFFEE7EF
:100A10000021481EFFF736FC10BD0000000000203A
:100A2000016841F0800101607047000010B531B1EC
:100A3000012945D002297DD003297CD1CBE0036A6E
:100A400023F001030362836923F003038361036AD4
:100A5000146823430362036A23F002030362036AF8
:100A6000D488234303626F4B984208D06E4B984260
:100A700005D06E4B984202D06D4B98421FD1036A4D
:100A800023F004030362036A948823430362036A26
:100A900023F008030362036A148923430362436853
:100AA00023F480734360436854892343436043685D
:100AB00023F4007343604368948923434360AEE0AA
:100AC000036A23F010030362836923F44073836194
:100AD000036A146843EA04130362036A23F02003E1
:100AE0000362036AD48843EA041303624D4B9842BD
:100AF00026D1036A23F040030362036A948843EA21
:100B000004130362036A23F080030362036A1489F7
:100B100043EA04130362436823F480634360436839
:100B2000548943EA84034360436823F400634360C9
:100B3000436801E011E071E0948943EA8403436073
:100B4000394B984208D1436823F48063436043687B
:100B5000548943EA8403436061E0036A23F48073A9
:100B60000362C36923F00303C361036A146843EAA1
:100B700004230362036A23F400730362036AD488C4
:100B800043EA04230362274B984223D1036A23F4E8
:100B900080630362036A948843EA04230362036A5E
:100BA00023F400630362036A148943EA04230362A3
:100BB000436823F4805343604368548943EA041331
:100BC0004360436823F4005343604368948943EAD5
:100BD0000413436023E0036A23F480530362C36970
:100BE00023F44073C361036A146843EA0433036265
:100BF000036A23F400530362036AD48843EA04338C
:100C00000362084B984208D1436823F48043436051
:100C10004368548943EA8413436000E000BF00BF87
:100C200010BD0000002C0140004001400044014084
:100C30000048014031B101290CD0022913D0032909
:100C400022D118E0836923F0700383618369134321
:100C500083611AE0836923F4E0438361836943EA93
:100C60000223836111E0C36923F07003C361C36988
:100C70001343C36109E0C36923F4E043C361C3695B
:100C800043EA0223C36100E000BF00BF704731B1F7
:100C9000012906D0022906D0032908D105E04263C4
:100CA00006E0826304E0C26302E0026400E000BF89
:100CB00000BF704731B101290CD0022913D003299C
:100CC00022D118E0836923F0080383618369134309
:100CD00083611AE0836923F400638361836943EAD3
:100CE0000223836111E0C36923F00803C361C36970
:100CF0001343C36109E0C36923F40063C361C3699B
:100D000043EA0223C36100E000BF00BF7047000058
:100D100010B504463349601A8C4217D00CDCB4F18C
:100D2000804F1CD03048204410B3B0F5406F28D01D
:100D3000B0F5E05F52D12DE0B0F5A05F33D0B0F553
:100D4000C05F39D0B0F5E05F48D13EE040F20B30F3
:100D5000FFF7BCFD40F20B30FFF7A8FD3FE04FF47A
:100D60008060FFF7B3FD4FF48060FFF79FFD36E032
:100D700040F20140FFF7AAFD40F20140FFF796FD67
:100D80002DE040F20440FFF7A1FD40F20440FFF7E0
:100D90008DFD24E04FF48160FFF798FD4FF48160F2
:100DA000FFF784FD1BE04FF44470FFF78FFD4FF415
:100DB0004470FFF77BFD12E040F21130FFF786FD33
:100DC00040F21130FFF772FD09E040F21230FFF7F8
:100DD0007DFD40F21230FFF769FD00E000BF00BF6B
:100DE00010BD0000002C014000FCFFBF016841F075
:100DF00001010160704700000A888262234A904224
:100E000005D0B0F1804F02D0214A90420BD1026848
:100E100022F07002026002684B881A430260026886
:100E20008B881A4302608A68C262184A904211D0C5
:100E3000B0F1804F0ED0164A90420BD0154A904226
:100E400008D0154A904205D0144A904202D0144A64
:100E5000904207D1026822F4407202600268CB8897
:100E60001A430260094A904208D00B4A904205D0CA
:100E70000A4A904202D00A4A904201D10A7B026398
:100E8000426942F00102426170470000002C0140BB
:100E900000040040002000400040014000440140A8
:100EA00000480140012904D1426C42F400424264EE
:100EB00003E0426C22F4004242647047DC0E0008FA
:100EC00000000020100000005C060008EC0E000886
:100ED00010000020000400006C06000800F36F06FC
:0C0EE00000000000000000000000000006
:04000005080001519D
:00000001FF
